{
  "contractName": "Existence",
  "abi": [
    {
      "constant": false,
      "inputs": [],
      "name": "renounceOwnership",
      "outputs": [],
      "payable": false,
      "stateMutability": "nonpayable",
      "type": "function"
    },
    {
      "constant": true,
      "inputs": [],
      "name": "owner",
      "outputs": [
        {
          "name": "",
          "type": "address"
        }
      ],
      "payable": false,
      "stateMutability": "view",
      "type": "function"
    },
    {
      "constant": false,
      "inputs": [
        {
          "name": "_newOwner",
          "type": "address"
        }
      ],
      "name": "transferOwnership",
      "outputs": [],
      "payable": false,
      "stateMutability": "nonpayable",
      "type": "function"
    },
    {
      "inputs": [],
      "payable": false,
      "stateMutability": "nonpayable",
      "type": "constructor"
    },
    {
      "anonymous": false,
      "inputs": [
        {
          "indexed": true,
          "name": "_from",
          "type": "address"
        },
        {
          "indexed": false,
          "name": "_hash",
          "type": "string"
        }
      ],
      "name": "LogCreateExistence",
      "type": "event"
    },
    {
      "anonymous": false,
      "inputs": [
        {
          "indexed": true,
          "name": "previousOwner",
          "type": "address"
        }
      ],
      "name": "OwnershipRenounced",
      "type": "event"
    },
    {
      "anonymous": false,
      "inputs": [
        {
          "indexed": true,
          "name": "previousOwner",
          "type": "address"
        },
        {
          "indexed": true,
          "name": "newOwner",
          "type": "address"
        }
      ],
      "name": "OwnershipTransferred",
      "type": "event"
    },
    {
      "constant": false,
      "inputs": [],
      "name": "toggleEStop",
      "outputs": [],
      "payable": false,
      "stateMutability": "nonpayable",
      "type": "function"
    },
    {
      "constant": false,
      "inputs": [
        {
          "name": "_existenceHash",
          "type": "string"
        }
      ],
      "name": "addExistence",
      "outputs": [],
      "payable": false,
      "stateMutability": "nonpayable",
      "type": "function"
    },
    {
      "constant": true,
      "inputs": [],
      "name": "getTotalExistences",
      "outputs": [
        {
          "name": "totalExistences",
          "type": "uint256"
        }
      ],
      "payable": false,
      "stateMutability": "view",
      "type": "function"
    },
    {
      "constant": true,
      "inputs": [
        {
          "name": "_id",
          "type": "uint256"
        }
      ],
      "name": "getSingleExistanceHash",
      "outputs": [
        {
          "name": "_ipfsHash",
          "type": "string"
        },
        {
          "name": "dateTimestamp",
          "type": "uint256"
        }
      ],
      "payable": false,
      "stateMutability": "view",
      "type": "function"
    }
  ],
  "bytecode": "0x608060405234801561001057600080fd5b50336000806101000a81548173ffffffffffffffffffffffffffffffffffffffff021916908373ffffffffffffffffffffffffffffffffffffffff1602179055506000600260006101000a81548160ff021916908315150217905550610a588061007b6000396000f300608060405260043610610083576000357c0100000000000000000000000000000000000000000000000000000000900463ffffffff168063512f2b40146100885780635aba4878146100b3578063715018a6146100ca5780638da5cb5b146100e1578063c6a7c13314610138578063de9f7610146101e5578063f2fde38b1461024e575b600080fd5b34801561009457600080fd5b5061009d610291565b6040518082815260200191505060405180910390f35b3480156100bf57600080fd5b506100c86102db565b005b3480156100d657600080fd5b506100df610362565b005b3480156100ed57600080fd5b506100f6610464565b604051808273ffffffffffffffffffffffffffffffffffffffff1673ffffffffffffffffffffffffffffffffffffffff16815260200191505060405180910390f35b34801561014457600080fd5b5061016360048036038101908080359060200190929190505050610489565b6040518080602001838152602001828103825284818151815260200191508051906020019080838360005b838110156101a957808201518184015260208101905061018e565b50505050905090810190601f1680156101d65780820380516001836020036101000a031916815260200191505b50935050505060405180910390f35b3480156101f157600080fd5b5061024c600480360381019080803590602001908201803590602001908080601f01602080910402602001604051908101604052809392919081815260200183838082843782019150505050505091929192905050506105df565b005b34801561025a57600080fd5b5061028f600480360381019080803573ffffffffffffffffffffffffffffffffffffffff169060200190929190505050610826565b005b6000600160003373ffffffffffffffffffffffffffffffffffffffff1673ffffffffffffffffffffffffffffffffffffffff16815260200190815260200160002060000154905090565b6000809054906101000a900473ffffffffffffffffffffffffffffffffffffffff1673ffffffffffffffffffffffffffffffffffffffff163373ffffffffffffffffffffffffffffffffffffffff1614151561033657600080fd5b600260009054906101000a900460ff1615600260006101000a81548160ff021916908315150217905550565b6000809054906101000a900473ffffffffffffffffffffffffffffffffffffffff1673ffffffffffffffffffffffffffffffffffffffff163373ffffffffffffffffffffffffffffffffffffffff161415156103bd57600080fd5b6000809054906101000a900473ffffffffffffffffffffffffffffffffffffffff1673ffffffffffffffffffffffffffffffffffffffff167ff8df31144d9c2f0f6b59d69b8b98abd5459d07f2742c4df920b25aae33c6482060405160405180910390a260008060006101000a81548173ffffffffffffffffffffffffffffffffffffffff021916908373ffffffffffffffffffffffffffffffffffffffff160217905550565b6000809054906101000a900473ffffffffffffffffffffffffffffffffffffffff1681565b60606000600160003373ffffffffffffffffffffffffffffffffffffffff1673ffffffffffffffffffffffffffffffffffffffff1681526020019081526020016000206001016000848152602001908152602001600020600101600160003373ffffffffffffffffffffffffffffffffffffffff1673ffffffffffffffffffffffffffffffffffffffff168152602001908152602001600020600101600085815260200190815260200160002060020154818054600181600116156101000203166002900480601f0160208091040260200160405190810160405280929190818152602001828054600181600116156101000203166002900480156105cf5780601f106105a4576101008083540402835291602001916105cf565b820191906000526020600020905b8154815290600101906020018083116105b257829003601f168201915b5050505050915091509150915091565b6060600060011515600260009054906101000a900460ff1615151415151561060657600080fd5b829150602e825114151561061957600080fd5b600160003373ffffffffffffffffffffffffffffffffffffffff1673ffffffffffffffffffffffffffffffffffffffff16815260200190815260200160002060000154905082600160003373ffffffffffffffffffffffffffffffffffffffff1673ffffffffffffffffffffffffffffffffffffffff168152602001908152602001600020600101600083815260200190815260200160002060010190805190602001906106c8929190610987565b5042600160003373ffffffffffffffffffffffffffffffffffffffff1673ffffffffffffffffffffffffffffffffffffffff16815260200190815260200160002060010160008381526020019081526020016000206002018190555060018101600160003373ffffffffffffffffffffffffffffffffffffffff1673ffffffffffffffffffffffffffffffffffffffff168152602001908152602001600020600001819055503373ffffffffffffffffffffffffffffffffffffffff167feb55a622d3a07c53b40d70f9357c78a8dfd290564045dafcd82eb73fefd87133846040518080602001828103825283818151815260200191508051906020019080838360005b838110156107e75780820151818401526020810190506107cc565b50505050905090810190601f1680156108145780820380516001836020036101000a031916815260200191505b509250505060405180910390a2505050565b6000809054906101000a900473ffffffffffffffffffffffffffffffffffffffff1673ffffffffffffffffffffffffffffffffffffffff163373ffffffffffffffffffffffffffffffffffffffff1614151561088157600080fd5b61088a8161088d565b50565b600073ffffffffffffffffffffffffffffffffffffffff168173ffffffffffffffffffffffffffffffffffffffff16141515156108c957600080fd5b8073ffffffffffffffffffffffffffffffffffffffff166000809054906101000a900473ffffffffffffffffffffffffffffffffffffffff1673ffffffffffffffffffffffffffffffffffffffff167f8be0079c531659141344cd1fd0a4f28419497f9722a3daafe3b4186f6b6457e060405160405180910390a3806000806101000a81548173ffffffffffffffffffffffffffffffffffffffff021916908373ffffffffffffffffffffffffffffffffffffffff16021790555050565b828054600181600116156101000203166002900490600052602060002090601f016020900481019282601f106109c857805160ff19168380011785556109f6565b828001600101855582156109f6579182015b828111156109f55782518255916020019190600101906109da565b5b509050610a039190610a07565b5090565b610a2991905b80821115610a25576000816000905550600101610a0d565b5090565b905600a165627a7a723058206e9f53c15828319b76dc5a02d61791eac422809fb8381bf28d3e4acca6946e470029",
  "source": "pragma solidity ^0.4.23;\n\nimport \"./Ownable.sol\";\n//import \"../installed_contracts/zeppelin/contracts/ownership/Ownable.sol\";\n/** @title Existence. */\ncontract Existence is Ownable{\n    mapping (address =>ExistenceOwner) existenceOwner;\n    struct ExistenceOwner {\n        uint totalExistences;\n        mapping(uint => Existance) existences;\n    }\n    bool eStop;\n    \n    struct Existance{\n        uint id;\n        string hash;\n        uint dateTimestamp;\n    }\n    \n    event LogCreateExistence(address indexed _from, string _hash);\n    \n    constructor(){\n        eStop = false;\n    }\n    \n    modifier isStopped() {\n        require(eStop != true);\n        _;\n     }\n    \n      /** @dev Allows owner to toggle emergency stop functionality*/\n     function toggleEStop() public onlyOwner{\n          eStop = !eStop;\n     }\n      \n      /** @dev Adds new ipfs hash to existence wwner mapping\n      * @param _existenceHash Hash of data stored on ipfs\n      */\n    function addExistence(  string _existenceHash)  public isStopped{\n        //check to make sure hash is valid\n        bytes memory inputLength = bytes(_existenceHash);\n        require(inputLength.length == 46 );\n\n        //get total existences for user\n        uint _totalExistences = existenceOwner[msg.sender].totalExistences;\n        \n        //save data & timestamp to verify the time the data was saved on ipfs\n        existenceOwner[msg.sender].existences[_totalExistences].hash = _existenceHash;\n        existenceOwner[msg.sender].existences[_totalExistences].dateTimestamp= now;\n        existenceOwner[msg.sender].totalExistences = _totalExistences + 1;\n        emit LogCreateExistence(msg.sender, _existenceHash);\n     }    \n     \n      /** @dev Returns total existences a user has stored\n      * @return totalExistences Number of existences.\n      */\n     function getTotalExistences() view returns (uint totalExistences){\n        return existenceOwner[msg.sender].totalExistences;\n     }\n     \n     /** @dev Returns a single ipfs has with timestamp\n      * @param _id Id of ipfs hash\n      * @return ipfsHash IPFS hash containing media & data.\n      * @return dateTimestamp Timestamp when data was first stored.\n      */\n     function getSingleExistanceHash(uint _id) view returns ( string _ipfsHash, uint dateTimestamp){\n         return(\n             existenceOwner[msg.sender].existences[_id].hash,\n             existenceOwner[msg.sender].existences[_id].dateTimestamp\n             );\n     }\n    \n    \n    \n    \n}",
  "sourcePath": "/home/jordan/work/consensys/proof_of_existence/contracts/Existence.sol",
  "compiler": {
    "name": "solc",
    "version": "0.4.24+commit.e67f0147.Emscripten.clang"
  },
  "schemaVersion": "2.0.1",
  "updatedAt": "2018-08-25T03:57:59.203Z"
}